:020000040800F2
:1000000008040020C9010008D1010008D30100083C
:10001000D5010008D7010008D90100080000000040
:10002000000000000000000000000000DB010008EC
:10003000DD01000800000000DF010008E101000808
:10004000E3010008E3010008E3010008E301000800
:10005000E3010008E3010008E3010008E3010008F0
:10006000E3010008E3010008E3010008E3010008E0
:10007000E3010008E3010008E3010008E3010008D0
:10008000E3010008E3010008E3010008E3010008C0
:10009000E3010008E3010008E3010008E3010008B0
:1000A000E3010008E3010008E3010008E3010008A0
:1000B000E3010008EF040008E3010008E301000881
:1000C000E3010008E3010008E3010008E301000880
:1000D000E3010008E3010008E3010008E301000870
:1000E000E3010008E3010008E3010008E301000860
:1000F000E3010008E3010008E3010008E301000850
:10010000E3010008E3010008E3010008E30100083F
:10011000E3010008E3010008E3010008E30100082F
:10012000E3010008E3010008E3010008E30100081F
:10013000E3010008E3010008E3010008E30100080F
:10014000E3010008E3010008E3010008E3010008FF
:10015000E3010008E3010008E3010008E3010008EF
:10016000E3010008E3010008E3010008E3010008DF
:10017000E3010008E3010008E301000800000000BB
:10018000E3010008E3010008E3010008E3010008BF
:10019000E3010008E3010008E3010008E3010008AF
:1001A000E3010008E3010008E3010008E30100089F
:1001B000E3010008E3010008E3010008E30100088F
:1001C000E3010008E301000806488047064880472D
:1001D000FEE7FEE7FEE7FEE7FEE7FEE7FEE7FEE7F7
:1001E000FEE7FEE7890200085902000800B515483D
:1001F000016841F4807101601348016841F0040115
:1002000001601248016821F0020101601048016894
:1002100021F00C01016000BD00B50E48016841F0FD
:100220000201016000BD00B50A48016801F0FD014E
:10023000016000BD00B50748016881F0020101605E
:1002400000BD00003038024000200240042002407F
:10025000082002401420024000B500F05AF800F0D7
:1002600076F8FFF7C3FF00F011F90648016801298D
:10027000FBD104484FF000010160FFF7DBFFF4E71A
:1002800000BD00000000002030B5734801684FF049
:10029000030241EA02514FF0030241EA8251016038
:1002A0006E48016841F0010101606D484FF00001A6
:1002B00001606A4801684FF6FF72CFF6F66201EA04
:1002C00002010160674843F21001C2F2004101607F
:1002D0006248016821F48021016063484FF0000109
:1002E000016062484FF00061016030BDF0B5BFF3BE
:1002F0004F8FBFF36F8F5E484FF0000101605D4884
:10030000016841F400310160BFF34F8FBFF36F8F7D
:10031000F0BD10B55848016841F4007101604FF01C
:10032000030000F001F810BD10B510F007025348AB
:1003300001684FF6FF0301EA030140F20003C5F62E
:10034000A07343EA022341EA0301016010BD00B536
:1003500000F005F800F045F800F056F800BD00B5D3
:100360003E48016821F4803101603C48016821F475
:10037000802101603948016811F40031FAD1374811
:10038000016821F4802101603448016841F4803122
:1003900001603248016811F40031FAD02F48016839
:1003A00021F0807101602D48016811F00071FAD1CF
:1003B0004FF019014FF4D87241EA821141F48001E3
:1003C0004FF0090241EA02612648016023480168B2
:1003D00041F0807101602148016811F00071FAD08C
:1003E00000BD00B5264801684FF0010241EA0271E4
:1003F00001602448016841F48031016022480168AD
:1004000001F48031FCD000BD00B51B48016841F00B
:1004100007010160124801684FF0000241EA021131
:1004200001600F48016841F0020101600C48016859
:1004300011F00C010829FBD1094801684FF00502B1
:1004400041EA82210160064801684FF0040241EA56
:100450004231016000BD000088ED00E0003802403C
:1004600008380240043802400C38024008ED00E031
:1004700050EF00E014ED00E0003C02400CED00E025
:1004800040380240007000400470004000B524482D
:100490004FF00001016023484FF000010160224845
:1004A000016841F0020101604FF01D001F490A6818
:1004B0004FF0010303FA00F342EA03020A601C480A
:1004C0004FF0C70101601B4842F62F2101601A4816
:1004D000016841F0010101601848016841F0010123
:1004E00001601748016841F00101016000BD00B5DD
:1004F000144801684FF0010221EA02010160084836
:10050000016801F101010160322907D104484FF06F
:100510000001016003484FF00101016000BD00BF10
:1005200001000020000000204038024000E100E00F
:100530002C04004028040040140400400C04004037
:0C05400000040040100400400000000017
:04000005080001C925
:00000001FF
